{
  "contractName": "CredefiToken",
  "abi": [
    {
      "inputs": [
        {
          "internalType": "address",
          "name": "_timelock",
          "type": "address"
        }
      ],
      "stateMutability": "nonpayable",
      "type": "constructor"
    },
    {
      "anonymous": false,
      "inputs": [
        {
          "indexed": true,
          "internalType": "address",
          "name": "owner",
          "type": "address"
        },
        {
          "indexed": true,
          "internalType": "address",
          "name": "spender",
          "type": "address"
        },
        {
          "indexed": false,
          "internalType": "uint256",
          "name": "value",
          "type": "uint256"
        }
      ],
      "name": "Approval",
      "type": "event"
    },
    {
      "anonymous": false,
      "inputs": [
        {
          "indexed": true,
          "internalType": "address",
          "name": "authorizer",
          "type": "address"
        },
        {
          "indexed": true,
          "internalType": "bytes32",
          "name": "nonce",
          "type": "bytes32"
        }
      ],
      "name": "AuthorizationUsed",
      "type": "event"
    },
    {
      "anonymous": false,
      "inputs": [
        {
          "indexed": true,
          "internalType": "address",
          "name": "timelock",
          "type": "address"
        }
      ],
      "name": "TimelockUpdated",
      "type": "event"
    },
    {
      "anonymous": false,
      "inputs": [
        {
          "indexed": true,
          "internalType": "address",
          "name": "from",
          "type": "address"
        },
        {
          "indexed": true,
          "internalType": "address",
          "name": "to",
          "type": "address"
        },
        {
          "indexed": false,
          "internalType": "uint256",
          "name": "value",
          "type": "uint256"
        }
      ],
      "name": "Transfer",
      "type": "event"
    },
    {
      "inputs": [],
      "name": "PERMIT_TYPEHASH",
      "outputs": [
        {
          "internalType": "bytes32",
          "name": "",
          "type": "bytes32"
        }
      ],
      "stateMutability": "view",
      "type": "function"
    },
    {
      "inputs": [],
      "name": "TRANSFER_WITH_AUTHORIZATION_TYPEHASH",
      "outputs": [
        {
          "internalType": "bytes32",
          "name": "",
          "type": "bytes32"
        }
      ],
      "stateMutability": "view",
      "type": "function"
    },
    {
      "inputs": [
        {
          "internalType": "address",
          "name": "",
          "type": "address"
        },
        {
          "internalType": "address",
          "name": "",
          "type": "address"
        }
      ],
      "name": "allowance",
      "outputs": [
        {
          "internalType": "uint256",
          "name": "",
          "type": "uint256"
        }
      ],
      "stateMutability": "view",
      "type": "function"
    },
    {
      "inputs": [
        {
          "internalType": "address",
          "name": "",
          "type": "address"
        },
        {
          "internalType": "bytes32",
          "name": "",
          "type": "bytes32"
        }
      ],
      "name": "authorizationState",
      "outputs": [
        {
          "internalType": "bool",
          "name": "",
          "type": "bool"
        }
      ],
      "stateMutability": "view",
      "type": "function"
    },
    {
      "inputs": [
        {
          "internalType": "address",
          "name": "",
          "type": "address"
        }
      ],
      "name": "balanceOf",
      "outputs": [
        {
          "internalType": "uint256",
          "name": "",
          "type": "uint256"
        }
      ],
      "stateMutability": "view",
      "type": "function"
    },
    {
      "inputs": [],
      "name": "decimals",
      "outputs": [
        {
          "internalType": "uint8",
          "name": "",
          "type": "uint8"
        }
      ],
      "stateMutability": "view",
      "type": "function"
    },
    {
      "inputs": [],
      "name": "name",
      "outputs": [
        {
          "internalType": "string",
          "name": "",
          "type": "string"
        }
      ],
      "stateMutability": "view",
      "type": "function"
    },
    {
      "inputs": [
        {
          "internalType": "address",
          "name": "",
          "type": "address"
        }
      ],
      "name": "nonces",
      "outputs": [
        {
          "internalType": "uint256",
          "name": "",
          "type": "uint256"
        }
      ],
      "stateMutability": "view",
      "type": "function"
    },
    {
      "inputs": [],
      "name": "symbol",
      "outputs": [
        {
          "internalType": "string",
          "name": "",
          "type": "string"
        }
      ],
      "stateMutability": "view",
      "type": "function"
    },
    {
      "inputs": [],
      "name": "timelock",
      "outputs": [
        {
          "internalType": "address",
          "name": "",
          "type": "address"
        }
      ],
      "stateMutability": "view",
      "type": "function"
    },
    {
      "inputs": [],
      "name": "totalSupply",
      "outputs": [
        {
          "internalType": "uint256",
          "name": "",
          "type": "uint256"
        }
      ],
      "stateMutability": "view",
      "type": "function"
    },
    {
      "inputs": [
        {
          "internalType": "address",
          "name": "_timelock",
          "type": "address"
        }
      ],
      "name": "changeTimelock",
      "outputs": [],
      "stateMutability": "nonpayable",
      "type": "function"
    },
    {
      "inputs": [
        {
          "internalType": "address",
          "name": "to",
          "type": "address"
        },
        {
          "internalType": "uint256",
          "name": "value",
          "type": "uint256"
        }
      ],
      "name": "mint",
      "outputs": [
        {
          "internalType": "bool",
          "name": "",
          "type": "bool"
        }
      ],
      "stateMutability": "nonpayable",
      "type": "function"
    },
    {
      "inputs": [
        {
          "internalType": "uint256",
          "name": "value",
          "type": "uint256"
        }
      ],
      "name": "burn",
      "outputs": [
        {
          "internalType": "bool",
          "name": "",
          "type": "bool"
        }
      ],
      "stateMutability": "nonpayable",
      "type": "function"
    },
    {
      "inputs": [
        {
          "internalType": "address",
          "name": "spender",
          "type": "address"
        },
        {
          "internalType": "uint256",
          "name": "value",
          "type": "uint256"
        }
      ],
      "name": "approve",
      "outputs": [
        {
          "internalType": "bool",
          "name": "",
          "type": "bool"
        }
      ],
      "stateMutability": "nonpayable",
      "type": "function"
    },
    {
      "inputs": [
        {
          "internalType": "address",
          "name": "to",
          "type": "address"
        },
        {
          "internalType": "uint256",
          "name": "value",
          "type": "uint256"
        }
      ],
      "name": "transfer",
      "outputs": [
        {
          "internalType": "bool",
          "name": "",
          "type": "bool"
        }
      ],
      "stateMutability": "nonpayable",
      "type": "function"
    },
    {
      "inputs": [
        {
          "internalType": "address",
          "name": "from",
          "type": "address"
        },
        {
          "internalType": "address",
          "name": "to",
          "type": "address"
        },
        {
          "internalType": "uint256",
          "name": "value",
          "type": "uint256"
        }
      ],
      "name": "transferFrom",
      "outputs": [
        {
          "internalType": "bool",
          "name": "",
          "type": "bool"
        }
      ],
      "stateMutability": "nonpayable",
      "type": "function"
    },
    {
      "inputs": [
        {
          "internalType": "address",
          "name": "owner",
          "type": "address"
        },
        {
          "internalType": "address",
          "name": "spender",
          "type": "address"
        },
        {
          "internalType": "uint256",
          "name": "value",
          "type": "uint256"
        },
        {
          "internalType": "uint256",
          "name": "deadline",
          "type": "uint256"
        },
        {
          "internalType": "uint8",
          "name": "v",
          "type": "uint8"
        },
        {
          "internalType": "bytes32",
          "name": "r",
          "type": "bytes32"
        },
        {
          "internalType": "bytes32",
          "name": "s",
          "type": "bytes32"
        }
      ],
      "name": "permit",
      "outputs": [],
      "stateMutability": "nonpayable",
      "type": "function"
    },
    {
      "inputs": [
        {
          "internalType": "address",
          "name": "from",
          "type": "address"
        },
        {
          "internalType": "address",
          "name": "to",
          "type": "address"
        },
        {
          "internalType": "uint256",
          "name": "value",
          "type": "uint256"
        },
        {
          "internalType": "uint256",
          "name": "validAfter",
          "type": "uint256"
        },
        {
          "internalType": "uint256",
          "name": "validBefore",
          "type": "uint256"
        },
        {
          "internalType": "bytes32",
          "name": "nonce",
          "type": "bytes32"
        },
        {
          "internalType": "uint8",
          "name": "v",
          "type": "uint8"
        },
        {
          "internalType": "bytes32",
          "name": "r",
          "type": "bytes32"
        },
        {
          "internalType": "bytes32",
          "name": "s",
          "type": "bytes32"
        }
      ],
      "name": "transferWithAuthorization",
      "outputs": [],
      "stateMutability": "nonpayable",
      "type": "function"
    },
    {
      "inputs": [],
      "name": "getChainId",
      "outputs": [
        {
          "internalType": "uint256",
          "name": "chainId",
          "type": "uint256"
        }
      ],
      "stateMutability": "view",
      "type": "function"
    },
    {
      "inputs": [],
      "name": "getDomainSeparator",
      "outputs": [
        {
          "internalType": "bytes32",
          "name": "",
          "type": "bytes32"
        }
      ],
      "stateMutability": "view",
      "type": "function"
    }
  ],
  "bytecode": "0x608060405234801561001057600080fd5b50604051610ff5380380610ff583398101604081905261002f91610086565b6100388161003e565b506100b6565b600080546001600160a01b0319166001600160a01b038316908117825560405190917fc046b9e8f0cd9b70a3b838962e9c229277fbb7abee68ea0fad4acf2898ed2ca991a250565b60006020828403121561009857600080fd5b81516001600160a01b03811681146100af57600080fd5b9392505050565b610f30806100c56000396000f3fe608060405234801561001057600080fd5b50600436106101375760003560e01c80637ecebe00116100b8578063d33219b41161007c578063d33219b4146102bf578063d505accf146102ea578063dd62ed3e146102fd578063e3ee160e14610328578063e94a01021461033b578063ed24911d1461036957600080fd5b80637ecebe001461025057806395d89b411461013c578063a0cc6a6814610270578063a9059cbb14610297578063c46fa2af146102aa57600080fd5b8063313ce567116100ff578063313ce567146101ea5780633408e4701461020457806340c10f191461020a57806342966c681461021d57806370a082311461023057600080fd5b806306fdde031461013c578063095ea7b31461017657806318160ddd1461019957806323b872dd146101b057806330adf81f146101c3575b600080fd5b61016060405180604001604052806005815260200164435245444960d81b81525081565b60405161016d9190610c87565b60405180910390f35b610189610184366004610cf1565b610371565b604051901515815260200161016d565b6101a260015481565b60405190815260200161016d565b6101896101be366004610d1b565b610388565b6101a27f6e71edae12b1b97f4d1f60370fef10105fa2faae0126114a169c64845d6126c981565b6101f2601281565b60405160ff909116815260200161016d565b466101a2565b610189610218366004610cf1565b6103fa565b61018961022b366004610d57565b610459565b6101a261023e366004610d70565b60026020526000908152604090205481565b6101a261025e366004610d70565b60046020526000908152604090205481565b6101a27f7c7c6cdb67a18743f49ec6fa9b35f50d52ed05cbed4cc592e13b44501c1a226781565b6101896102a5366004610cf1565b61046d565b6102bd6102b8366004610d70565b61047a565b005b6000546102d2906001600160a01b031681565b6040516001600160a01b03909116815260200161016d565b6102bd6102f8366004610da3565b6104d5565b6101a261030b366004610e0d565b600360209081526000928352604080842090915290825290205481565b6102bd610336366004610e40565b6105ea565b610189610349366004610cf1565b600560209081526000928352604080842090915290825290205460ff1681565b6101a26107e4565b600061037e33848461088a565b5060015b92915050565b6001600160a01b038316600090815260036020908152604080832033845290915281205460001981146103e4576103bf8382610ed4565b6001600160a01b03861660009081526003602090815260408083203384529091529020555b6103ef8585856108ec565b506001949350505050565b600080546001600160a01b0316331461044f5760405162461bcd60e51b815260206004820152601260248201527143524544493a4e4f545f54494d454c4f434b60701b60448201526064015b60405180910390fd5b61037e8383610a01565b60006104653383610a93565b506001919050565b600061037e3384846108ec565b6000546001600160a01b031633146104c95760405162461bcd60e51b815260206004820152601260248201527143524544493a4e4f545f54494d454c4f434b60701b6044820152606401610446565b6104d281610b1f565b50565b4284101561051a5760405162461bcd60e51b815260206004820152601260248201527110d49151124e9055551217d156141254915160721b6044820152606401610446565b6001600160a01b0387811660008181526004602081815260408084205481517f6e71edae12b1b97f4d1f60370fef10105fa2faae0126114a169c64845d6126c981850152808301879052968d166060880152608087018c905260a0870181905260c08088018c90528251808903909101815260e0909701909152855195820195909520939092529052906105af906001610ee7565b6001600160a01b0389166000908152600460205260409020556105d58882868686610b67565b6105e088888861088a565b5050505050505050565b8542116106395760405162461bcd60e51b815260206004820152601860248201527f43524544493a415554485f4e4f545f5945545f56414c494400000000000000006044820152606401610446565b84421061067d5760405162461bcd60e51b815260206004820152601260248201527110d49151124e9055551217d156141254915160721b6044820152606401610446565b6001600160a01b038916600090815260056020908152604080832087845290915290205460ff16156106f15760405162461bcd60e51b815260206004820152601760248201527f43524544493a415554485f414c52454144595f555345440000000000000000006044820152606401610446565b604080517f7c7c6cdb67a18743f49ec6fa9b35f50d52ed05cbed4cc592e13b44501c1a22676020808301919091526001600160a01b038c8116838501528b166060830152608082018a905260a0820189905260c0820188905260e08083018890528351808403909101815261010090920190925280519101206107778a82868686610b67565b6001600160a01b038a166000818152600560209081526040808320898452909152808220805460ff19166001179055518792917f98de503528ee59b575ef0c0a2576a82497bfc029a5685b209e9ec333479b10a591a36107d88a8a8a6108ec565b50505050505050505050565b60007f8b73c3c69bb8fe3d512ecc4cf759cc79239f7b179b0ffacaa9a75d522b39400f7f3c5eac0879bc46be0fe2a2701e57d8e6edcaa427c79074f4513eb9572ff505077fc89efdaa54c0f20c7adf612882df0950f5a951637e0307cdcb4c672f298b8bc646604080516020810195909552840192909252606083015260808201523060a082015260c00160405160208183030381529060405280519060200120905090565b6001600160a01b0383811660008181526003602090815260408083209487168084529482529182902085905590518481527f8c5be1e5ebec7d5bd14f71427d1e84f3dd0314c0f7b2291e5b200ac8c7c3b92591015b60405180910390a3505050565b6001600160a01b038216301480159061090d57506001600160a01b03821615155b6109595760405162461bcd60e51b815260206004820152601f60248201527f43524544493a52454345495645525f49535f544f4b454e5f4f525f5a45524f006044820152606401610446565b6001600160a01b03831660009081526002602052604090205461097d908290610ed4565b6001600160a01b0380851660009081526002602052604080822093909355908416815220546109ad908290610ee7565b6001600160a01b0380841660008181526002602052604090819020939093559151908516907fddf252ad1be2c89b69c2b068fc378daa952ba7f163c4a11628f55a4df523b3ef906108df9085815260200190565b80600154610a0f9190610ee7565b6001556001600160a01b038216600090815260026020526040902054610a36908290610ee7565b6001600160a01b0383166000818152600260205260408082209390935591519091907fddf252ad1be2c89b69c2b068fc378daa952ba7f163c4a11628f55a4df523b3ef90610a879085815260200190565b60405180910390a35050565b6001600160a01b038216600090815260026020526040902054610ab7908290610ed4565b6001600160a01b038316600090815260026020526040902055600154610ade908290610ed4565b6001556040518181526000906001600160a01b038416907fddf252ad1be2c89b69c2b068fc378daa952ba7f163c4a11628f55a4df523b3ef90602001610a87565b600080546001600160a01b0319166001600160a01b038316908117825560405190917fc046b9e8f0cd9b70a3b838962e9c229277fbb7abee68ea0fad4acf2898ed2ca991a250565b6000610b716107e4565b60405161190160f01b602082015260228101919091526042810186905260620160408051601f198184030181528282528051602091820120600080855291840180845281905260ff88169284019290925260608301869052608083018590529092509060019060a0016020604051602081039080840390855afa158015610bfc573d6000803e3d6000fd5b5050604051601f1901519150506001600160a01b03811615801590610c325750866001600160a01b0316816001600160a01b0316145b610c7e5760405162461bcd60e51b815260206004820152601760248201527f43524544493a494e56414c49445f5349474e41545552450000000000000000006044820152606401610446565b50505050505050565b600060208083528351808285015260005b81811015610cb457858101830151858201604001528201610c98565b506000604082860101526040601f19601f8301168501019250505092915050565b80356001600160a01b0381168114610cec57600080fd5b919050565b60008060408385031215610d0457600080fd5b610d0d83610cd5565b946020939093013593505050565b600080600060608486031215610d3057600080fd5b610d3984610cd5565b9250610d4760208501610cd5565b9150604084013590509250925092565b600060208284031215610d6957600080fd5b5035919050565b600060208284031215610d8257600080fd5b610d8b82610cd5565b9392505050565b803560ff81168114610cec57600080fd5b600080600080600080600060e0888a031215610dbe57600080fd5b610dc788610cd5565b9650610dd560208901610cd5565b95506040880135945060608801359350610df160808901610d92565b925060a0880135915060c0880135905092959891949750929550565b60008060408385031215610e2057600080fd5b610e2983610cd5565b9150610e3760208401610cd5565b90509250929050565b60008060008060008060008060006101208a8c031215610e5f57600080fd5b610e688a610cd5565b9850610e7660208b01610cd5565b975060408a0135965060608a0135955060808a0135945060a08a01359350610ea060c08b01610d92565b925060e08a013591506101008a013590509295985092959850929598565b634e487b7160e01b600052601160045260246000fd5b8181038181111561038257610382610ebe565b8082018082111561038257610382610ebe56fea26469706673582212200f13a647bae7dd1c647b712e7606a02bd88dbfaaca7f7b4a850b022579010df564736f6c63430008120033",
  "immutableReferences": {},
  "source": "// SPDX-License-Identifier:MIT\npragma solidity 0.8.18;\n\nimport \"@openzeppelin/contracts/token/ERC20/IERC20.sol\";\n\ncontract CredefiToken is IERC20 {\n    // bytes32 private constant EIP712DOMAIN_HASH =\n    // keccak256(\"EIP712Domain(string name,string version,uint256 chainId,address verifyingContract)\")\n    bytes32 private constant EIP712DOMAIN_HASH = 0x8b73c3c69bb8fe3d512ecc4cf759cc79239f7b179b0ffacaa9a75d522b39400f;\n\n    // bytes32 private constant NAME_HASH = keccak256(\"Credi\")\n    bytes32 private constant NAME_HASH = 0x3c5eac0879bc46be0fe2a2701e57d8e6edcaa427c79074f4513eb9572ff50507;\n\n    // bytes32 private constant VERSION_HASH = keccak256(\"1\")\n    bytes32 private constant VERSION_HASH = 0xc89efdaa54c0f20c7adf612882df0950f5a951637e0307cdcb4c672f298b8bc6;\n\n    // bytes32 public constant PERMIT_TYPEHASH =\n    // keccak256(\"Permit(address owner,address spender,uint256 value,uint256 nonce,uint256 deadline)\");\n    bytes32 public constant PERMIT_TYPEHASH = 0x6e71edae12b1b97f4d1f60370fef10105fa2faae0126114a169c64845d6126c9;\n\n    // bytes32 public constant TRANSFER_WITH_AUTHORIZATION_TYPEHASH =\n    // keccak256(\"TransferWithAuthorization(address from,address to,uint256 value,uint256 validAfter,uint256 validBefore,bytes32 nonce)\");\n    bytes32 public constant TRANSFER_WITH_AUTHORIZATION_TYPEHASH =\n        0x7c7c6cdb67a18743f49ec6fa9b35f50d52ed05cbed4cc592e13b44501c1a2267;\n\n    string public constant name = \"CREDI\";\n    string public constant symbol = \"CREDI\";\n    uint8 public constant decimals = 18;\n\n    address public timelock;\n    uint256 public override totalSupply;\n\n    mapping(address => uint256) public override balanceOf;\n    mapping(address => mapping(address => uint256)) public override allowance;\n\n    // ERC-2612, ERC-3009 state\n    mapping(address => uint256) public nonces;\n    mapping(address => mapping(bytes32 => bool)) public authorizationState;\n\n    event AuthorizationUsed(address indexed authorizer, bytes32 indexed nonce);\n    event TimelockUpdated(address indexed timelock);\n\n    modifier onlyTimelock() {\n        require(msg.sender == address(timelock), \"CREDI:NOT_TIMELOCK\");\n        _;\n    }\n\n    constructor(address _timelock) {\n        _changeTimelock(_timelock);\n    }\n\n    function changeTimelock(address _timelock) external onlyTimelock {\n        _changeTimelock(_timelock);\n    }\n\n    function mint(address to, uint256 value) external onlyTimelock returns (bool) {\n        _mint(to, value);\n        return true;\n    }\n\n    function burn(uint256 value) external returns (bool) {\n        _burn(msg.sender, value);\n        return true;\n    }\n\n    function approve(address spender, uint256 value) external override returns (bool) {\n        _approve(msg.sender, spender, value);\n        return true;\n    }\n\n    function transfer(address to, uint256 value) external override returns (bool) {\n        _transfer(msg.sender, to, value);\n        return true;\n    }\n\n    function transferFrom(\n        address from,\n        address to,\n        uint256 value\n    ) external override returns (bool) {\n        uint256 fromAllowance = allowance[from][msg.sender];\n        if (fromAllowance != type(uint256).max) {\n            // Allowance is implicitly checked with Solidity's underflow protection\n            allowance[from][msg.sender] = fromAllowance - value;\n        }\n        _transfer(from, to, value);\n        return true;\n    }\n\n    function permit(\n        address owner,\n        address spender,\n        uint256 value,\n        uint256 deadline,\n        uint8 v,\n        bytes32 r,\n        bytes32 s\n    ) external {\n        require(deadline >= block.timestamp, \"CREDI:AUTH_EXPIRED\");\n\n        bytes32 encodeData = keccak256(abi.encode(PERMIT_TYPEHASH, owner, spender, value, nonces[owner], deadline));\n        nonces[owner] = nonces[owner] + 1;\n        _validateSignedData(owner, encodeData, v, r, s);\n\n        _approve(owner, spender, value);\n    }\n\n    function transferWithAuthorization(\n        address from,\n        address to,\n        uint256 value,\n        uint256 validAfter,\n        uint256 validBefore,\n        bytes32 nonce,\n        uint8 v,\n        bytes32 r,\n        bytes32 s\n    ) external {\n        require(block.timestamp > validAfter, \"CREDI:AUTH_NOT_YET_VALID\");\n        require(block.timestamp < validBefore, \"CREDI:AUTH_EXPIRED\");\n        require(!authorizationState[from][nonce], \"CREDI:AUTH_ALREADY_USED\");\n\n        bytes32 encodeData = keccak256(\n            abi.encode(TRANSFER_WITH_AUTHORIZATION_TYPEHASH, from, to, value, validAfter, validBefore, nonce)\n        );\n        _validateSignedData(from, encodeData, v, r, s);\n\n        authorizationState[from][nonce] = true;\n        emit AuthorizationUsed(from, nonce);\n\n        _transfer(from, to, value);\n    }\n\n    function getChainId() public view returns (uint256 chainId) {\n        // solhint-disable-next-line no-inline-assembly\n        assembly {\n            chainId := chainid()\n        }\n    }\n\n    function getDomainSeparator() public view returns (bytes32) {\n        return keccak256(abi.encode(EIP712DOMAIN_HASH, NAME_HASH, VERSION_HASH, getChainId(), address(this)));\n    }\n\n    function _changeTimelock(address _timelock) internal {\n        timelock = _timelock;\n        emit TimelockUpdated(_timelock);\n    }\n\n    function _validateSignedData(\n        address signer,\n        bytes32 encodeData,\n        uint8 v,\n        bytes32 r,\n        bytes32 s\n    ) internal view {\n        bytes32 digest = keccak256(abi.encodePacked(\"\\x19\\x01\", getDomainSeparator(), encodeData));\n        address recoveredAddress = ecrecover(digest, v, r, s);\n        // Explicitly disallow authorizations for address(0) as ecrecover returns address(0) on malformed messages\n        require(recoveredAddress != address(0) && recoveredAddress == signer, \"CREDI:INVALID_SIGNATURE\");\n    }\n\n    function _mint(address to, uint256 value) internal {\n        totalSupply = totalSupply + value;\n        balanceOf[to] = balanceOf[to] + value;\n        emit Transfer(address(0), to, value);\n    }\n\n    function _burn(address from, uint256 value) internal {\n        // Balance is implicitly checked with Solidity's underflow protection\n        balanceOf[from] = balanceOf[from] - value;\n        totalSupply = totalSupply - value;\n        emit Transfer(from, address(0), value);\n    }\n\n    function _approve(\n        address owner,\n        address spender,\n        uint256 value\n    ) private {\n        allowance[owner][spender] = value;\n        emit Approval(owner, spender, value);\n    }\n\n    function _transfer(\n        address from,\n        address to,\n        uint256 value\n    ) private {\n        require(to != address(this) && to != address(0), \"CREDI:RECEIVER_IS_TOKEN_OR_ZERO\");\n\n        // Balance is implicitly checked with Solidity's underflow protection\n        balanceOf[from] = balanceOf[from] - value;\n        balanceOf[to] = balanceOf[to] + value;\n        emit Transfer(from, to, value);\n    }\n}\n",
  "sourcePath": "D:\\credefi\\credefi_tokens\\contracts\\CREDI\\CredefiToken.sol",
  "compiler": {
    "name": "solc",
    "version": "0.8.18+commit.87f61d96.Emscripten.clang"
  },
  "schemaVersion": "3.4.16",
  "updatedAt": "2025-04-01T11:35:26.408Z",
  "devdoc": {
    "events": {
      "Approval(address,address,uint256)": {
        "details": "Emitted when the allowance of a `spender` for an `owner` is set by a call to {approve}. `value` is the new allowance."
      },
      "Transfer(address,address,uint256)": {
        "details": "Emitted when `value` tokens are moved from one account (`from`) to another (`to`). Note that `value` may be zero."
      }
    },
    "kind": "dev",
    "methods": {},
    "stateVariables": {
      "allowance": {
        "details": "Returns the remaining number of tokens that `spender` will be allowed to spend on behalf of `owner` through {transferFrom}. This is zero by default. This value changes when {approve} or {transferFrom} are called."
      },
      "balanceOf": {
        "details": "Returns the amount of tokens owned by `account`."
      },
      "totalSupply": {
        "details": "Returns the amount of tokens in existence."
      }
    },
    "version": 1
  },
  "userdoc": {
    "kind": "user",
    "methods": {},
    "version": 1
  }
}